:020000040800F2
:10000000600101201D0300084DAD00083584000883
:10001000ADA90008B121000881DE00080000000041
:10002000000000000000000000000000E5C900081A
:10003000E92700080000000089C60008EDCE00088E
:1000400037030008370300083703000837030008A8
:100050003703000837030008370300083703000898
:10006000370300083703000837030008D9210008C8
:1000700037030008E92100083703000837030008A8
:10008000F921000837030008370300083703000888
:100090003703000837030008370300083703000858
:1000A0003703000837030008370300083703000848
:1000B0004DD0000837030008370300083703000855
:1000C00037030008398400083703000837030008A5
:1000D00037030008B5DA0008C5DA0008370300085E
:1000E0003703000837030008370300083703000808
:1000F0003703000837030008370300080922000807
:1001000037030008370300083703000837030008E7
:10011000BDD30008CDD3000837030008370300081B
:1001200037030008192200082922000837030008B5
:1001300037030008370300083703000837030008B7
:1001400037030008370300083703000837030008A7
:10015000370300083703000837030008D5DA000822
:100160003703000837030008370300083703000887
:1001700037030008370300083703000800000000B9
:10018000370300083703000800F002F800F0B6F863
:100190000AA090E8000C82448344AAF10107DA45E2
:1001A00001D100F0ABF8AFF2090EBAE80F0013F07E
:1001B000010F18BFFB1A43F001031847D0250100B7
:1001C000F025010010F8013B0A4413F0030408BFB6
:1001D00010F8014B1D1108BF10F8015B641E05D01B
:1001E00010F8016B641E01F8016BF9D1002D15D0D8
:1001F00010F8014B03F00C030C2BA1EB04040ABF15
:1002000010F8013BA4EB8314A4EB032405F10103D4
:1002100014F8016B5B1E01F8016BF9D5914238BFF0
:1002200010F8013BD1D3704700230024002500269D
:10023000103A28BF78C1FBD8520728BF30C148BF49
:100240000B6070476E2900F0D382702900F01D8486
:10025000662910F07684652910F07384672910F000
:100260007084612910F06F8403681B0A28BF41F075
:100270008001692900F08082642900F07D8275295F
:1002800000F07A826F2900F0AA83782900F0E983D0
:10029000E92900F04583E42900F04283F52900F0C4
:1002A0003F83EF2900F0A783F82900F0E883036873
:1002B000DB0928BF41F08001632901F0EF80732939
:1002C00001F0F480E32901F0FF80F32901F00481BB
:1002D000002070471FB510F02AFC01F053F904000C
:1002E000002000210FF0F0FE401C60600020002183
:1002F0000FF0D4FEE0601FBD10B510BD01F014F981
:100300001146FFF7E7FF0FF0BDF801F0F1F903B474
:10031000FFF7F2FF03BC01F035FA000009488047FF
:1003200009480047FEE7FEE7FEE7FEE7FEE7FEE7D7
:10033000FEE7FEE7FEE7FEE704480549054A064BEF
:1003400070470000ADCF00088901000860DF002081
:100350006001012060F1002060F1002053EA020CEE
:1003600000F069802DE9F04B4FF00006002B1FBF15
:10037000B3FA83F503FA05F424FA05F65E4012BFDA
:100380001643B2FA82F502FA05F4C5F120051EBF44
:1003900022FA05FC44EA0C04203556EA044C4FEAE4
:1003A000144418BF641C4FF000084FF0000990423D
:1003B00071EB030C39D3002919BFB1FA81F701FAA7
:1003C00007F6B0FA80F700FA07F6C7F120071EBF5C
:1003D00020FA07FC46EA0C062037B6FBF4FCA7EB34
:1003E0000507103F07F01F0BCBF120060CFA0BFBA3
:1003F0002CFA06F644BFB3460026202FA4BF5E4663
:100400004FF0000B5BEA060C08BF4FF0010B19EB35
:100410000B09ABFB027C48EB0608C01B06FB02CCB9
:100420000BFB03CC71EB0C01C1E70B4602464146C6
:100430004846BDE8F08B13B54FF000004FF00001C7
:10044000AFF30080BDE81C40704700007CB51D463E
:1004500016460C00009001D02044401E074B7B4400
:100460002A4669460190304600F0DBF905461CB18A
:100470000020694600F0E8F928467CBDF103000041
:1004800040EA010310B59B070FD1042A0DD310C811
:1004900008C9121F9C42F8D020BA19BA884201D963
:1004A000012010BD4FF0FF3010BD1AB1D30703D0AB
:1004B000521C07E0002010BD10F8013B11F8014B61
:1004C0001B1B07D110F8013B11F8014B1B1B01D17D
:1004D000921EF1D1184610BD10B5431C02E010F871
:1004E000011B71B18107FAD14FF0013202C88C1A99
:1004F0008C4314EAC211F9D0C01A0A0603D0C01EF8
:1005000010BDC01A10BD0A0401D0801E10BD090222
:10051000FCD0401E10BD032A40F2308010F0030CC6
:1005200000F0158011F8013BBCF1020F624498BF46
:1005300011F801CB00F8013B38BF11F8013BA2F1E3
:10054000040298BF00F801CB38BF00F8013B11F05E
:10055000030300F02580083AC0F0088051F8043BFE
:10056000083A51F804CBA0E80810F5E7121D5CBF6B
:1005700051F8043B40F8043BAFF30080D20724BF9E
:1005800011F8013B11F801CB48BF11F8012B24BF32
:1005900000F8013B00F801CB48BF00F8012B704781
:1005A00010B5203AC0F00B80B1E81850203AA0E80E
:1005B0001850B1E81850A0E81850BFF4F5AF5FEA42
:1005C000027C24BFB1E81850A0E8185044BF18C9F5
:1005D00018C0BDE810405FEA827C24BF51F8043B9C
:1005E00040F8043B08BF7047D20728BF31F8023BF0
:1005F00048BF11F8012B28BF20F8023B48BF00F884
:10060000012B70474FF000020429C0F0128010F057
:10061000030C00F01B80CCF1040CBCF1020F18BFDE
:1006200000F8012BA8BF20F8022BA1EB0C0100F071
:100630000DB85FEAC17C24BF00F8012B00F8012B44
:1006400048BF00F8012B70474FF0000200B5134679
:1006500094469646203922BFA0E80C50A0E80C50E2
:10066000B1F12001BFF4F7AF090728BFA0E80C5093
:1006700048BF0CC05DF804EB890028BF40F8042B8C
:1006800008BF704748BF20F8022B11F0804F18BFF9
:1006900000F8012B704770477047704710B500F0A5
:1006A000C3FA006810BD10B5044600F0BDFA04603E
:1006B00010BD70B5044685690068C10601D53026B5
:1006C00000E02026C00707D070BDD4E901213046E4
:1006D0009047206A401C20626D1EF6D570BD70B533
:1006E000044685690078C00707D170BDD4E90121AF
:1006F00020209047206A401C20626D1EF6D570BDF8
:1007000009684A0501D540B27047C905FCD500B259
:10071000704709684A0501D5C0B27047C905FCD5C4
:1007200080B2704770B50C460546012A05D028787E
:10073000800600D5EA69002302E0012305E05B1C86
:10074000934202D2E05C0028F9D1A869E618C01AE9
:10075000A861286A184428622846FFF7AAFF04E027
:10076000D5E9012114F8010B9047B442F8D328468B
:10077000FFF7B5FF70BD00002DE9F04106460024EB
:1007800010687529314616A510D0FFF7B9FF00286B
:1007900002DA404213A507E031688A0701D512A5A5
:1007A00002E0490704D511A5012401E0FFF7B1FFDC
:1007B00000210A2206F1240709E0B0FBF2FCB0FB9D
:1007C000F2F302FB1C00303078541846491C002814
:1007D000F3D123462A463046BDE8F04100F06DBA19
:1007E000000000002D0000002B0000002000000091
:1007F00011680268006A530501D508700AE0D30544
:1008000001D5088006E0130603D5C217C1E900022E
:1008100000E008600120704701694A1C0261087805
:10082000704700B58FB0CDE9013100210591054930
:100830007944CDE903101146684600F031F90FB054
:1008400000BD0000E5FFFFFF0A6802F8010B0A6027
:100850007047D1E900239A4202D2531C0B601070FA
:10086000704700002DE9FF5F15468A460446DFF811
:10087000AC80F8440027D8E900103E46CDE90010CE
:1008800010E03AF816106A4602A800F029FE411C52
:1008900007D02178890603D5E269391891420DD82D
:1008A0000744761C2078800602D5E069B84205DD51
:1008B000AE42E6DB3AF816000028E2D1A069C01B80
:1008C000A0612046FFF7F5FED8E90010CDE9001041
:1008D000002017E03AF818106A4602A800F000FE5F
:1008E000B0F1FF3F81460BD000250DF1080B05E06C
:1008F000D4E901211BF8050090476D1C4D45F7D345
:1009000008F10100B0428046E4DB206A38442062EE
:100910002046FFF7E4FEBDE8FF9F0000E61D010052
:100920002DE9F0418046D21D22F007020025D2E9D0
:100930000002F52915A614D0011E72F1000106DA95
:100940000023D0EB030063EB020211A608E0D8F805
:1009500000108B0701D50FA602E0490701D50EA6AE
:1009600001251146002408F1240704E000F060F995
:1009700030323A55641C50EA0102F7D12B46324618
:1009800021464046BDE8F04100F097B90000000064
:100990002D0000002B0000002000000030B40021DA
:1009A00000F1240408E002F00705D208303542EADD
:1009B0004372DB086554491C52EA0305F3D104680D
:1009C000002310A2250707D5A40600D421B1C469CD
:1009D00001230DA2641EC46130BC00F06EB910B5D5
:1009E000044621461068FFF794FE02462046BDE803
:1009F00010400023D2E7D21D22F00701D1E90023E5
:100A0000CCE700000000000030000000F0B40D460C
:100A10000188090502D5214C7C4402E01F4C7C442E
:100A20000E34002100F1240608E002F00F0712093D
:100A3000E75D42EA03721B097754491C52EA030737
:100A4000F3D102780023120704D5702D06D009B126
:100A5000022311342246F0BC00F02FB901231034D8
:100A6000F8E770B504460D4621461068FFF751FEC1
:100A7000024629462046BDE870400023C6E7D21D45
:100A800022F00703D3E90023C0E70368126843F0AC
:100A9000200303600823C3610023B7E7481C01005B
:100AA0002DE9F05F894604464FF0000ADFF874B183
:100AB000FB44C0F820A02046E1688847002874D095
:100AC000252806D0D4E901219047206A401C2062E5
:100AD000F1E700265F462046E16888472028054662
:100AE00007DB312D05D2781910F8200C08B1064328
:100AF000F1E7B00701D526F00406C4F81CA00027D2
:100B0000C4F818A02A2D09D028460DF063FE38B38A
:100B100004EB8708303DC8F8185019E059F8041B59
:100B2000204604EB87029161E1688847012F054662
:100B300018D1E069002820DA26F020061DE0D8F858
:100B4000180000EB800005EB40003038C8F81800B2
:100B50002046E168884705460DF03CFE0028EED1AE
:100B6000012F0AD02E2D08D12046E16888477F1C2E
:100B70000546022F46F02006C4DBA069002803DAF0
:100B8000404246F00106A061F00701D026F01006B1
:100B90006C2D0BD0682D09D04C2D39D06A2D35D055
:100BA000742D35D07A2D33D016E038E0E1682F4629
:100BB00020468847B842054609D16C2F26D04FF40D
:100BC0008060E168064320468847054604E06C2FB4
:100BD0001AD04FF4807006430DB3A5F141001928D7
:100BE00002D8203546F400664A462946204626604B
:100BF0004E46FFF727FB80B101280BD0F61D26F0EB
:100C0000070000F1080956E74020E4E78020D8E714
:100C10000020D6E706F104094DE7284652E7206A8E
:100C2000BDE8F09FD81B010000487047FCDE0020A3
:100C300030B5B0F10A024FEA900E71F100034EEAAE
:100C4000817EB0EB0E0061EB91014FEA101E4EEA7F
:100C5000017E10EB0E0041EB11114FEA102E4EEA0F
:100C6000016E10EB0E0041EB11214FEA104E4EEADF
:100C7000014E10EB0E0041EB1141401841F1000113
:100C80004FEAD00040EA41704FEAD10110EB8005F5
:100C90004FEA810444EA907444EB01046D1944EB7B
:100CA0000404521BA3414FF0000348BF0A3200D591
:100CB00030BD401C41F1000130BD2DE9F0470D462B
:100CC00099469246044600F124080168880604D536
:100CD000E06921F01001216000E00120A84201DD5F
:100CE000471B00E00027A1697A1902EB0900081AE6
:100CF000A0612078C00602D42046FFF7DAFC002667
:100D000008E0D4E901211AF806009047206A401C47
:100D1000761C20624E45F4DB2078C0060AD52046BA
:100D2000FFF7C7FC06E0D4E9012130209047206A94
:100D3000401C2062381EA7F10107F4DC07E0D4E96B
:100D4000012118F805009047206A401C2062281EE7
:100D5000A5F10105F3DC2046FFF7C1FC2078000671
:100D600002D50220BDE8F0870120FBE770472DE99E
:100D7000FF4F0C461E464FF0FF378BB0D2E9000103
:100D8000DDF860800A908A46C1F30A5505B93D46F0
:100D9000002108464FF00000BAF1000F00F44000B7
:100DA00005DA00EB80004FF4400101EA50004FEA01
:100DB0009059B9F1010F00DDB9460A9850EA4A008E
:100DC0000ED044F61050A5F2FF3545432F14B8F16C
:100DD000000F1ED07542291E1EDDC9F100021CE065
:100DE000B8F1010F4FF0000001D0302103E0F243D1
:100DF00005E02154401CB042FBDB304600220021BC
:100E000021540B99C1F80880C1E900200FB0BDE85A
:100E1000F08FBD1B6D1CDEE74A4600DA694206A86A
:100E200000F0F4FB06AB93E8070003AB83E8070090
:100E300050460A9900F0ADFC8DE80700A0F500507F
:100E40001F3800900398002D0ADD42F21F014A4628
:100E50000844002303A90390684600F016FF09E048
:100E6000A0F500504A461F38002303A903906846A6
:100E700000F020FF8DE807000004000C03D04FF0C5
:100E8000FF30410800E01046B8F1000F03D0002207
:100E9000009215461EE0751E05D4FFF7C9FE3032DC
:100EA00062556D1EF9D5B3460122084302D00022D7
:100EB0007F1C04E02078302801D100227F1E002A08
:100EC000099784D01DE0112D07DAFFF7B1FE30320B
:100ED00062556D1C50EA0102F5D1084302D000981A
:100EE000C8B10EE00021681E05E0235C625C63541B
:100EF0002254401E491C8142F7DBAB46A81B401E12
:100F00000990002004F80B000B98099AC0F808809B
:100F1000C0E9002B7AE711264FF0000857E72DE9CA
:100F2000F04F88460446D21D22F0070191B0D1E966
:100F30000001CDE90A010CF0C2FF02460B98C00F78
:100F400001D02D2007E02068810701D52B2002E089
:100F5000202101EAC000032A099001D0072A05DBFD
:100F600003464146204600F011FB0BE12078800645
:100F700001D5E06900E00620B8F1650F814606D092
:100F8000B8F1660F18D0B8F1670F70D131E00020CA
:100F9000B9F1110F009001DB112301E009F1010308
:100FA0000AAA01A90CA8FFF7E2FEDDE90C700026F1
:100FB00009F10105834647E001204B4600904FF0C0
:100FC00000470AAA01A90CA8FFF7D1FEDDE90DB080
:100FD0000C995D46002610B909F101000D18B9EB16
:100FE000050003D4C0F1FF3609F10105A5EB0900A6
:100FF0002BE0B9F1010F01DA4FF001090020B9F13E
:10100000110F0090484601DD112300E003460AAAB3
:1010100001A90CA8FFF7ABFEDDE90C704D460026D8
:101020008346207800070AD4AB4500DA5D4601A864
:10103000012D04DD411911F8011C302907D04F455D
:1010400002DA17F1040F04DA012082460FE06D1E68
:10105000EEE7002F02DCED1B3E4403E0781CA842C3
:1010600000DD7D1CB81B00F1010A4FF0004720781D
:10107000000703D4AA4501DB4FF0FF3A0021B7F186
:10108000004F0DF143088DF8431024D002202B238C
:10109000002F01DA7F422D230A21021EA0F1010058
:1010A00000DC5FB197FBF1FC97FBF1F201FB1C7CCC
:1010B00017460CF1300C08F801CDEEE7A8F101005D
:1010C00003702188090501D5452100E06521A0F1C3
:1010D000010800F8011C09980FA9A1EB0807FF1DE2
:1010E00000B10120411901EBEA70A1693844081AE6
:1010F000401EA0612078C00602D42046FFF7D9FA2E
:10110000099828B1D4E901219047206A401C206247
:101110002078C00622D52046FFF7CBFA1EE0002E2D
:1011200004DBB34502DD01A8805D00E03020D4E996
:1011300001219047206A401C2062761CAAF1010020
:101140005FEA000A0AD100F01DFAC0680168405C3D
:10115000D4E901219047206A401C2062281EA5F195
:101160000105DCDC07E0D4E9012118F8010B904708
:10117000206A401C2062381EA7F10107F3DC2046DC
:10118000FFF7ADFA032011B041E600002DE9F04F62
:1011900004460D46D21D22F0070089B0D0E9009721
:1011A000484639460CF08BFE0246F80F01D02D233D
:1011B00007E02068810701D52B2302E0202101EA06
:1011C000C0038DF820300BB1012000E00020032A7D
:1011D000824601D0072A04DB2946204600F0D6F9D2
:1011E0003FE12078800601D40D2500E0E569C7F3D2
:1011F0000A560D2D49DA00214FEA175B08464FF0D9
:101200000000002F00F4400007DA00EB80004FF4EC
:10121000400100EBD07001EA60008115012901DD79
:101220004FF0FF3100224FEA850CBCF1180F06D3B6
:101230001346ACF118004FF08052C24003E04FF467
:10124000801323FA0CF30CF10C0CBCF1200F04D327
:10125000ACF1200C09FA0CF001E007FA0CF00029BF
:101260004FF0004801DD18B90FE00ED140450CD316
:1012700019EB02095F4121B9404502D19F4329EA98
:101280000209BBEB175F00D0761C2088000502D551
:101290007B48784402E07A487844193808AA302319
:1012A00002F80A30037C0AF10101002E0AF1020A59
:1012B00053546A4602DC4FF0300101E04FF0310137
:1012C0004FF001088DF8001002D0A6F2FF3603E0BF
:1012D00059EA470100D06B4E002D02DC2178090746
:1012E00004D54FF002082E218DF80110C4460021CC
:1012F0000BE0C7F303433F01C35C491C6D1E02F8BA
:101300000830052908F1010801DA002DF1DC00217F
:101310000CE000EB1973491C1B786D1E082902F8BC
:1013200008304FEA091908F1010801DA002DF0DC54
:1013300021688B0602D516E0A8F10108E04505DD1D
:1013400002EB080313F8013C302BF5D0B8F1000F85
:1013500009DD02EB080313F8013C2E2B03D109072A
:1013600001D4A8F10108002D05DD3E2102F8081086
:101370006D1E08F10108407C002E02F8080008F1FB
:10138000010804DA2D20764202F8080002E02B2042
:1013900002F808000A214FF47A70864208F1010829
:1013A0000BDB96FBF0F3303302F8083096FBF0F3DA
:1013B00008F1010800FB136601E0642E0CDB6420D9
:1013C00096FBF0F3303302F8083096FBF0F308F1A7
:1013D000010800FB136601E00A2E06DB96FBF1F024
:1013E000303002F8080008F1010896FBF1F001FB2B
:1013F0001060303002F80800A16908F1010808EB1C
:10140000050202EB0A00081AA0612078C00602D487
:101410002046FFF74EF9216A08AE01EB0A00206270
:1014200004E0D4E9012116F8010B9047BAF1010A52
:10143000F7D22078C00602D52046FFF73AF96E466B
:1014400009E016F8010B3E280FD0D4E9012190479E
:10145000206A401C2062B8F10108F2D22046FFF752
:101460003EF909B00320BDE8F08F206A28442062CD
:1014700003E0D4E90121302090476D1EEBD3F8E75B
:101480003D14010002FCFFFF10B5436913B1AFF337
:10149000008001E0FFF746F9012010BD127800F14D
:1014A00024010A7000224A700122EDE711684FF012
:1014B000FF32E9E710B5436913B1AFF3008001E0F3
:1014C000FFF7D0F9012010BD128800F124018284B9
:1014D0000022C2840122EDE711684FF0FF32E9E7F4
:1014E00070B516460C46054600F044F8036893F8BC
:1014F0000101012806D0FF2C0FD8185D68B101202A
:101500002C7070BDD3F807013246214603F2071351
:1015100003442846BDE8704018474FF0FF3070BDC7
:1015200000487047FCDE00207546FFF7F9FFAE4625
:1015300005006946534620F00700854618B020B5DF
:10154000FEF7FAFEBDE820404FF000064FF000071E
:101550004FF000084FF0000B21F00701AC46ACE85B
:10156000C009ACE8C009ACE8C009ACE8C0098D46C8
:101570007047000010B500F005F8001D10BD00BF59
:1015800049EB0000004870471CDF00202DE9F041C6
:101590001F46044603260168072A01F4006004DBA5
:1015A00008B116A505E016A503E008B115A500E0F1
:1015B00015A521F010002060A069C01EA0610FB128
:1015C000401EA0612046FFF774F84FB1D4E9012115
:1015D00038469047206A401C2062C01C206206E00A
:1015E000206AFAE7D4E9012115F8010B9047761E2D
:1015F000F8D22046FFF773F8BDE8F0814E414E0067
:101600006E616E00494E4600696E66002DE9F04736
:10161000814616468AB0354878440DC88DE80D00DD
:1016200032487844801C03AC0DC884E80D0041F6B4
:101630009B300844372190FBF1F290FBF1F5A5F1C6
:10164000800501FB12041B3C02D56442012000E02E
:101650000020DFF898A080460027FA44AAF1BE0ACD
:101660000EE0E0070AD03246684607EB4701012347
:101670000AEB810100F01EFB8DE8070064107F1C5F
:10168000002CEED1194F7F44AE3F19E0E80715D08A
:1016900007EB04100DF1180A90E80E008AE80E001E
:1016A000C068F04201D1981908903246012306A97A
:1016B00003A800F0FFFA03AB83E807006D10641C79
:1016C000002DE3D14FF0010332466946B8F1000F17
:1016D00003A802D000F0D9FA01E000F0EBFAC9E962
:1016E0000001C9F808200AB0BDE8F08748110100E0
:1016F00010B50446AFF300802046BDE81040FEF769
:1017000006BE00004FF0013C50F8042B51F8043B9A
:101710009A4221D1A2EB0C03934313EACC1317D1C5
:1017200050F8042B51F8043B9A4215D1A2EB0C035C
:10173000934313EACC130BD150F8042B51F8043B1C
:101740009A4209D1A2EB0C03934313EACC13DBD0EA
:101750004FF00000704700BFD01A01BAB1FA81F112
:1017600001F0180122FA01F0CB40C1F12001DBB2F7
:10177000C0B2C01A2CFA01F3D11A914311EAC31175
:10178000E6D1704701491820ABBEFEE726000200F3
:1017900070475FEA400C08BF91F0000F4FEA8C23BE
:1017A0004FEAC12243EA51514FEA1C5018BF00F5DD
:1017B000F0404FEA300018BF41F000415FEA6C5C36
:1017C00000F02980BCF1FF3F08BF40F08040704727
:1017D000130C06BF12044FF0100C4FF0000C130E48
:1017E00004BF12020CF1080C130F04BF12010CF11C
:1017F000040C930F04BF92000CF1020CD30F04BF32
:1018000052000CF1010C11464FF00002A0F11F0034
:10181000A0EB0C00704711F0004F08BF704731F08B
:1018200000413FF4D5AF0B0C06BF09044FF0100C7C
:101830004FF0000C0B0E04BF09020CF1080C0B0F4B
:1018400004BF09010CF1040C8B0F04BF89000CF1DB
:10185000020CCB0F04BF49000CF1010CCCF12003AA
:10186000A0EB0C0022FA03F302FA0CF241EA0301A6
:1018700000F10100704720F07F4C80EA030023F064
:101880007F47ACEB070303F57C5300F0004003F106
:10189000FF032DE980494FEA154B09B44FEA144381
:1018A00025EA0B4E24EA03480FF2042606EB132721
:1018B00049083E785FEA320203FB0667C7F5000776
:1018C00007FB06F64FEA54374FEAD64606F1020602
:1018D00007FB066CCCF1005C4FEA1C472CEA074C76
:1018E00007FB06F40CFB06F504EB15464FEA9616CB
:1018F00034BF00204FF000404FEAD13706FB07FC11
:101900004FEA1C4C0CFB0BF7D21B03FB0CF761EBF3
:1019100007010CFB0EF7B0EB074072EB17420CFB14
:1019200008F734BFA2EB0742B2EB074261EB174165
:101930004FEA0C444FEA910706FB07FC4FEA1C4CA8
:101940000CFB0BF7B0EBC74072EB573203FB0CF705
:1019500034BFA2EBC742B2EBC74261EB57310CFB7D
:101960000EF7B0EBC70072EB57720CFB08F734BFF1
:10197000A2EBC702B2EBC70261EB5771039F4FEABC
:10198000816141EA921104EBCC044FEAD1374FEA6E
:10199000826206FB07FC42EA90124FEA80604FEA3F
:1019A0001C4C0CFB0BF7D21B03FB0CF761EB070184
:1019B0000CFB0EF7B0EB074072EB17420CFB08F77D
:1019C00034BFA2EB0742B2EB074261EB17414FEA8B
:1019D0008C554FEA910704EB9C2406FB07FC4FEA69
:1019E0001C4C0CFB0BF7B0EBC74072EB573203FB00
:1019F0000CF734BFA2EBC742B2EBC74261EB5731E1
:101A00000CFB0EF7B0EBC70072EB57720CFB08F73C
:101A100034BFA2EBC702B2EBC70261EB577115EB03
:101A20004C254FEA816141EA92114FEA82624FEA06
:101A3000D13742EA901206FB07FC44F100044FEA5A
:101A400080604FEA1C4C0CFB0BF7D21B03FB0CF71E
:101A500061EB07010CFB0EF7B0EB074072EB17428E
:101A60000CFB08F734BFA2EB0742B2EB074261EB75
:101A7000174115EB1C154FEA813141EA92414FEABB
:101A8000823242EA90424FEA80304FEA0C7644F1CB
:101A9000000448EA03434EEA0B484FF0000EB2EB55
:101AA000080C71EB030724BF624639464EEB0E0E5D
:101AB0004FF0000B0018524149414BEB0B0BB2EBBE
:101AC000080C71EB03077BF1000B24BF624639461B
:101AD0004EEB0E0E4FF0000B0018524149414BEBFC
:101AE0000B0BB2EB080C71EB03077BF1000B24BF6F
:101AF000624639464EEB0E0E51EA020718BF46F019
:101B0000010616EB0E7655F1000254F1000103D5E3
:101B1000BDE88901BDE80088BDE88901BDE800484D
:101B2000B619524141EB0101A3F1010370478080D6
:101B30007F7E7D7C7B7A7978777676757473727127
:101B400071706F6E6E6D6C6C6B6A6A6968686766DF
:101B500066656464636362616160605F5F5E5E5D71
:101B60005D5C5C5B5B5A5A595958585757565655E5
:101B700055555454535352525251515050504F4F47
:101B80004F4E4E4D4D4D4C4C4C4B4B4B4A4A4A4997
:101B900049494848484747474746464645454544DA
:101BA0004444444343434342424242414141002B67
:101BB0009C4630D477002BD01CB54FEA370703B4CE
:101BC0004FF010004FF01001BAF1000F06D0BCF139
:101BD000000FDCBF40F0080040F008014FF00000AB
:101BE0000FBCBDE810400BF1010BBBF1010F08BFAA
:101BF0005FEA170722BF12F1010211F101014FF054
:101C0000004143F1000300F0004043EA0000704748
:101C1000F9D35708D0E746EA064613F1400F4FEADA
:101C200016461FDD13F1200FDFBF16430A460021C1
:101C300020335B42BED0C3F1200746EA064602FAD3
:101C400007F74FEA164646EA0706C3F1200722FACD
:101C500003F201FA07F721FA03F14FF0000342EA19
:101C60000702A7E746EA020646EA06464FEA164694
:101C700046EA0106BCBF46EA0646360C4FF00003B2
:101C80004FF000024FF0000194E72DE9804C9A4696
:101C9000934670B491E8380007C831EA400C48BF59
:101CA00034EA430C03D5FFF7E6FDFFF780FFF0BCF5
:101CB000BDE8008C2DE9804C9A46934670B491E8BB
:101CC000380007C810F0804F08BF13F0804F03D1D1
:101CD00000F005F8FFF76BFFF0BCBDE8008C20F0CA
:101CE0007F4780EA030023F07F4C07EB0C03A3F54A
:101CF0007C5300F00040A3F1FE0392F0000F00F0CF
:101D0000B38095F0000F00F077802DE901494FEA8C
:101D100011404FEA144621EA004800FB06FC24EA81
:101D2000064708FB06F607FB08F800FB07F718EB69
:101D300006484CEB164C4FEA124B18EB07484FEA9B
:101D400015464CEB174022EA0B4E0BFB06FC25EA2E
:101D500006470EFB06F607FB0EFE0BFB07F71EEB16
:101D6000064E4CEB164C4FF000061EEB074E4CEBAC
:101D7000174B18EB0B0840F1000018EB0E0B58EB5B
:101D8000000840F100008F1A4FF000013CBFC9432A
:101D9000661B14BFB5EB040C00213CBFC943F61B06
:101DA0004FEA17444EEA8E0E27EA04454FEA1C47D5
:101DB00004FB07622CEA074C05FB07F70CFB05F652
:101DC00004FB0CFC16EB074642EB174216EB0C46E5
:101DD00042EB1C421BEB060658EB0202414146EA6D
:101DE0009E0601D5BDE80189B619524141EB0101BA
:101DF000A3F10103BDE801894FEA14454FEA1147F9
:101E000024EA054621EA074C05FB07F406FB07F721
:101E10000CFB06F105FB0CFC11EB074144EB1744EE
:101E20004FEA124711EB0C4144EB1C4422EA074CE9
:101E300005FB07F206FB07F70CFB06F605FB0CFC9F
:101E400016EB074642EB174216EB0C4642EB1C45DD
:101E50006A1854F1000148BF7047B619524141EB6E
:101E60000101A3F10103704795F0000F37D04FEA4D
:101E700011424FEA144721EA024624EA074C02FBCA
:101E800007F106FB07F70CFB06F402FB0CFC14EB56
:101E9000074441EB17414FEA154714EB0C4441EB63
:101EA0001C4125EA074C02FB07F506FB07F70CFB74
:101EB00006F602FB0CFC16EB074645EB174516EB46
:101EC0000C4645EB1C42121951F1000148BF704706
:101ED000B619524141EB0101A3F1010370474FEAEA
:101EE00014454FEA114724EA054621EA074C05FB51
:101EF00007F106FB07F70CFB06F24FF0000605FBA7
:101F00000CFC12EB074241EB174112EB0C4251EB78
:101F10001C4148BF7047921841EB0101A3F1010336
:101F2000704770B505460024281D00F051F804469E
:101F30001CB928460AF0D8FE0446204670BD0000B1
:101F40001CB5BE2001904FF6FF70012301AA70213D
:101F50000090024803F03CF91CBD0000B4B300201F
:101F600070B5032403251AE00325282002F0ACFCF9
:101F700007E0012002F0A8FCFFF7E2FF282002F0B2
:101F8000A3FC00F01DF818B9681EC0B2051EF0D100
:101F900005B108E000F06AF8142002F095FC601E1C
:101FA000C0B2041EE0D100BF0CB1002070BD012002
:101FB000FCE710B5002400F047F80446E00910BD26
:101FC00010B5002400F040F80446C4F3C00010BD72
:101FD0003EB50546002400F059F8FFF7EAFF68BB5C
:101FE0001748007850BB4FF6FF70062301AA7021F6
:101FF0000090144802F066FF00BF9DF805002043E2
:1020000004029DF80600204304029DF807000443E3
:1020100024092C6000249DF80700204304029DF849
:102020000800204304029DF809000443C4F313048C
:102030006C6001200249087000203EBD0120FCE7D1
:102040002D000020B4B300201CB5002001904FF6F5
:10205000FF70012301AA70210090034802F032FFB3
:102060009DF804001CBD0000B4B300201CB5BA20CC
:1020700001904FF6FF70012301AA702100900248E1
:1020800003F0A6F81CBD0000B4B3002008B5084852
:10209000007801280BD14FF6FF700323054A702109
:1020A0000090054803F094F800200149087008BD2D
:1020B0002D0000202E000020B4B3002010B507A191
:1020C0000B480BF089FEFFF74BFF18B100200949C0
:1020D000087002E001200749087010BD4168745F74
:1020E000496E6974202E2E2E2E2E2E0D0A00000011
:1020F0002CB70020D4DE002010B50448007800B9C9
:1021000010BD0248FFF70DFF00BFF9E7D4DE002045
:1021100008B517A310220021084609F0C7F80020CF
:1021200014A3102201460090104609F0DDF80020AB
:1021300011A3102201460090202009F0D5F80FA32A
:1021400010220021302009F0B1F80DA3082201214E
:10215000402009F0ABF80DA308220221002009F06D
:10216000A5F80EA308220321002009F09FF808BD5E
:1021700059740000BACC0000B6B7000072590000D4
:1021800068747470733A2F2F0000000073706163DD
:10219000652E62696C6962696C69000020202020EC
:1021A000202E636F6D2F33303139313039333500A4
:1021B00000BFFEE770B503460124002007E01D5C68
:1021C0000E5CB54201D0002403E0451CE8B2904209
:1021D000F5DB00BF204670BD10B5024802F094F94F
:1021E00010BD000064B8002010B5024802F08CF960
:1021F00010BD000004B8002010B5024802F084F9B8
:1022000010BD000024B9002010B5024802F07CF98E
:1022100010BD00005CB4002010B5024802F074F953
:1022200010BD000084B9002010B5024802F06CF91E
:1022300010BD0000C4B800200146087810381823EB
:10224000B0FBF3F20848805CC865032A05D908682A
:102250006FF30900001D886503E008686FF309004B
:102260008865886D704700004A0B01080146002010
:102270008A6A8B69CBB932B1012A0DD0022A03D008
:10228000032A10D10EE000BFCB6A03F08073B3F1D4
:10229000807F00D1012007E0CB6AB3F1C07F00D17D
:1022A000012001E000E000BF34E08B69B3F5005F7E
:1022B0001AD132B1012A07D0022A03D0032A11D140
:1022C0000AE000BF01200EE0CB6A03F08073B3F197
:1022D000807F00D1012006E0CB6AB3F1C07F00D13E
:1022E000012000E000BF15E032B1012A05D0022A2A
:1022F00004D0032A0CD103E000BF00BF012008E096
:10230000CB6A03F08073B3F1807F00D1012000E03D
:1023100000BF00BF704730B50468246824F48024EF
:1023200005682C60046863608468402C04D10468EC
:10233000A2600468E16003E00468A1600468E260F0
:1023400030BD00002DE9F0470446DDE90EC80C9FC2
:102350000A9E089D8C604FF0020981F800904A6047
:10236000DFF87890C1F80C90084603744561C0F816
:102370002880DDF82490C0F8189016B14FF00109BC
:1023800001E04FF0000990F824A069F3000A80F8FA
:1023900024A0DDF82C90C0F81C9017B14FF0010973
:1023A00001E04FF0000990F824A069F3410A80F899
:1023B00024A0DDF83490C0F82090BCF1000F02D0CA
:1023C0004FF0010901E04FF0000990F824A069F3F3
:1023D000820A80F824A0BDE8F0870000E12300080D
:1023E0002DE9F04105460E462C46012E02D0022E64
:1023F00077D1F6E0207C072823D2DFE800F0042321
:10240000426082A4C20094F8247007F001070FB163
:10241000277E00E001273B4694F82470C7F380072D
:1024200017B194F8207000E0FF273A4660690778FA
:102430001F44F9B2914202DC07788F4200DD114659
:102440000170CCE094F8247007F001070FB1278BDE
:1024500000E001273B4694F82470C7F380070FB1D2
:10246000278C01E04FF6FF773A46606907881F44E2
:10247000B9B2914202DC07888F4200DD114601802B
:10248000ADE094F8247007F001070FB1A76900E0F0
:1024900001273B4694F82470C7F380070FB1276AE1
:1024A00001E04FF0FF373A4660690768F91891423A
:1024B00002D807688F4200D9114601608FE094F876
:1024C000247007F0010717B194F9187000E0012794
:1024D0003B4694F82470C7F380071FB194F920702D
:1024E00001E071E17F273A46606907781F4479B2BD
:1024F000914203DC90F900708F4200DD11460170BB
:102500006DE094F8247007F0010717B1B4F9187062
:1025100000E001273B4694F82470C7F3800717B109
:10252000B4F9207001E047F6FF773A466069078802
:102530001F4439B2914203DCB0F900708F4200DDD4
:10254000114601804BE094F8247007F001070FB1A9
:10255000A76900E001273B4694F82470C7F3800781
:102560000FB1276A01E06FF000473A4660690768DB
:10257000F918914202DC07688F4200DD11460160C4
:102580002DE094F8241001F0010111B1D4ED061AE8
:1025900001E0F7EE001AB0EE611A94F82410C1F3CE
:1025A000800111B1D4ED081A01E0DFED8C1AF0EED4
:1025B000610A6069D0ED001A31EE810AB4EEE00ADA
:1025C000F1EE10FA06DCD0ED001AF4EEC01AF1EECE
:1025D00010FA01DDB0EE600A80ED000A00BF00BF16
:1025E000F3E0207C072822D2DFE800F00422405DDF
:1025F0007FA0BE0094F8247007F001070FB1277E7A
:1026000000E001273B4694F82470C7F340070FB160
:10261000277F00E000273A4660690778FF1AF9B281
:10262000914202DB07788F4200DA11460170C9E05F
:1026300094F8247007F001070FB1278B00E0012701
:102640003B4694F82470C7F340070FB1A78B00E016
:1026500000273A4660690788FF1AB9B2914202DB47
:1026600007888F4200DA11460180ABE094F82470AD
:1026700007F001070FB1278B00E001273B4694F8D4
:102680002470C7F340070FB1A78B00E000273A463C
:1026900060690768F91A914202D307688F4200D235
:1026A000114601608EE094F8247007F0010717B11D
:1026B00094F9187000E001273B4694F82470C7F3A2
:1026C000400717B194F91C7001E06FF07F073A469C
:1026D00060690778FF1A79B2914203DB90F90070C4
:1026E0008F4200DA114601706CE094F8247007F014
:1026F000010717B1B4F9187000E001273B4694F8C0
:102700002470C7F3400717B1B4F91C7000E0344FD0
:102710003A4660690788FF1A39B2914203DBB0F983
:1027200000708F4200DA114601804BE094F824706B
:1027300007F001070FB1A76900E001273B4694F8B5
:102740002470C7F340070FB1E76901E04FF000477D
:102750003A4660690768F91A914202DB07688F42BE
:1027600000DA114601602DE094F8241001F0010117
:1027700011B1D4ED061A01E0F7EE001AB0EE611ABD
:1027800094F82410C1F3400111B1D4ED071A01E00F
:10279000DFED141AF0EE610A6069D0ED001A31EE37
:1027A000C10AB4EEE00AF1EE10FA06D3D0ED001A39
:1027B000F4EEC01AF1EE10FA01D2B0EE600A80ED2C
:1027C000000A00BF00BF00E000BF00BFA06A10B158
:1027D000A16A60698847BDE8F0810000FFFF7F7F44
:1027E0000080FFFFFFFF7FFF7047000010B5044629
:1027F0000020084909684862064804F08BFB00BFC6
:1028000004480068406AA042FAD3024804F024FC5D
:1028100010BD000054B6002000200CE0002106E0AE
:102820002023064A02EB001253544A1CD1B210294D
:10283000F6DB411CC8B20228F0DB704738BA002032
:10284000F8B5AE48406C00287DD00024A4E0AB4A27
:10285000203202EB0411203A02EB04101022FFF7A1
:10286000A9FC002870D1A54A203202EB0411203ABD
:1028700002EB04101022FDF74EFE002587E09F4872
:1028800000EB0410405D802826DC9C48806D0078B9
:10289000B8B99A4991F85E10012906D1974991F883
:1028A0005C10A14201D1012100E000210B469349B7
:1028B00001EB04114A5DE80090494E6C2146B04797
:1028C00063E08E4901EB04114A5DE8008B49002367
:1028D0004E6C2146B04758E00F2D06D0874800EBDC
:1028E0000411681C085C80281CDC2020834901EB53
:1028F00004114855814991F85E10012906D17F499C
:1029000091F85C10A14201D1012100E000210B46A9
:102910007A4901EB04114A5DE80078494E6C214682
:10292000B04732E00F2D30D0744800EB0411681C22
:10293000085C802829DD7148C06C30B36F4800EB1B
:102940000410405D01E02BE024E08DF800006B48AE
:1029500000EB0411681C085C8DF80100674991F8D0
:102960005E10012906D1654991F85C10A14201D1A0
:10297000012100E000210B46E80060496A46CE6C68
:102980002146B047681CC5B200BF681CC5B2102DF7
:10299000FFF675AF601CC4B2022CFFF658AFACE076
:1029A0005648006C0028FAD00024A3E0534A203295
:1029B00002EB0411203A02EB04101022FFF7FAFB9D
:1029C00000287DD14D4A203202EB0411203A02EB5F
:1029D00004101022FDF79FFD002586E0474800EB1C
:1029E0000410405D802826DC4448806D0078B8B92A
:1029F000424F97F85E70012F06D1404F97F85C70F8
:102A0000A74201D1012700E000273B463B4F07EBDF
:102A100004177A5D2101E800384F3E6CB04762E050
:102A2000364B03EB04135A5D2101E800334B1E6C57
:102A30000023B04757E00F2D06D0304800EB0411BB
:102A4000681C085C80281CDC20202C4901EB041148
:102A500048552A4F97F85E70012F06D1274F97F8F7
:102A60005C70A74201D1012700E000273B46234FBD
:102A700007EB04177A5D2101E800204F3E6CB04758
:102A800031E00F2D2FD01D4800EB0411681C085CAD
:102A9000802828DD1948806C28B3184800EB041002
:102AA000405D8DF80000154800EB0411681C085CBF
:102AB0008DF80100114A92F85E20012A08D100E049
:102AC00016E00E4A92F85C20A24201D1012200E0F9
:102AD000002213462101E800084A966C6A46B04776
:102AE000681CC5B200BF681CC5B2102DFFF676AFDA
:102AF000601CC4B2022CFFF659AFF8BD18BA002012
:102B0000F0B504460D46104613E0022800DB12E043
:102B1000214609E0102900DB08E02027074E06EBDC
:102B2000001677544E1CF1B2A942F3DD00BF411CE0
:102B3000C8B29842E9DD00BFF0BD000038BA0020FD
:102B400010B50446114890F85E0050B901200F49B5
:102B500081F85E000846806DC06810B1896DC86854
:102B600080470A48046590F8540048B1074A92F833
:102B70005400926D516988470020044981F854003F
:102B80000249896D0869804710BD000018BA00200D
:102B9000102801DA022900DB7047034B03EB011315
:102BA0001A5400BFF8E7000038BA002010B50548F5
:102BB000806D007800B110BD0248846D606A804766
:102BC00000BFF8E718BA00202DE9F04104460F468F
:102BD00015462846FDF780FC00F0FF08002616E0A9
:102BE000002C07DDAA5D2146641CC8B23946FFF7F8
:102BF000CFFF0AE0A8EB0601491E6A5C04F1100150
:102C0000C8B23946FFF7C4FF641E701CC6B2A85D87
:102C10000028E5D1BDE8F08110B50446154890F8CC
:102C20005E0001280AD11348806D38B11148806DCB
:102C3000806918B10F49896D886980470D4884659E
:102C4000806D007838B90B49886D002180F821101B
:102C500080F8221000BF074890F85E00012807D1D5
:102C60000448806DC06818B10249896DC868804702
:102C700010BD000018BA00202DE9F04107460C46AF
:102C800015461E460748076444648564C6640020F0
:102C9000044981F85400FFF7BFFD00F029F8BDE8B2
:102CA000F081000018BA0020044991F8541001B1D5
:102CB0007047024981F8540000BFF9E718BA0020B4
:102CC0000FB430B585B004460D460BA80090102116
:102CD00001A8009B0A9AFDF7B9FB0020009001AA09
:102CE00029462046FFF770FF05B030BC5DF814FBA5
:102CF00000B5ADB0E948EA49EA4A1023CDE9002120
:102D00000290E9A2EB49002009F090FF0B20EA4B6A
:102D1000EAA2EC490090002008F018FFEA4BEBA271
:102D2000ED49E84800F078FFEC4BEDA2EF49E548AB
:102D300000F072FFEE4BEFA2F149E24800F06CFFA9
:102D4000F04BF1A2F249DF4800F066FFF14BF2A22E
:102D5000F449DC4800F060FFF34BF4A2F549D94890
:102D600000F05AFFF44BF5A2F749D64800F054FFA3
:102D7000F64BF7A2F949D34800F04EFFF84BF9A201
:102D8000FC49D04800F048FFFB4BFCA2FD49CD4870
:102D900000F042FFFC4BFDA2FE49CA4800F03CFF98
:102DA000FD48FE49FE4A6423CDE900210290C7A2F6
:102DB000C549C44809F03AFF0420FA4BC8A2C749E4
:102DC0000090C04808F0C2FEF748F84BF8A2FA4954
:102DD0000090C2480AF05CF8F848F44B5B1CF8A27B
:102DE000F9490090BD480AF053F8F848EF4B9B1C96
:102DF000F7A2F9490090B9480AF04AF8F748EB4BB6
:102E0000DB1CF7A2F8490090B4480AF041F8002012
:102E1000F649CDE900010A23B6A2B5490290A948B6
:102E200009F004FF0320F24BB7A2B6490090A54871
:102E300008F08CFEEF490522DC48001D0623CDE991
:102E400001210090ECA2EE49AE4809F061FEED4987
:102E50000522D64808300623CDE901210090EAA2D8
:102E6000EB49A84809F054FEEA490522CF480C3046
:102E70000623CDE901210090E7A2E849A14809F025
:102E800047FE0220E64BA4A2A24900908D4808F01C
:102E90005DFEE44BE4A2E6499E4800F0BDFEE54B32
:102EA000E5A2E7499B4800F0B7FE0220E54BDEA211
:102EB000DC490090974808F049FEE34800682C90F0
:102EC000E148001D00682B90DF48083000682A9018
:102ED000DE480121CDE906102A98CDE904102B988F
:102EE000CDE902102C980190B04810300523D8A2EB
:102EF000D8490090CB48FFF725FAD74BD7A2D9493C
:102F0000C8480AF045FA0220D74BCBA2C949009025
:102F1000804808F01BFECC480C3000682990CA4855
:102F2000103000682890C848143000682790CF48B7
:102F30000121CDE906102798CDE904102898CDE9A4
:102F4000021029980190994814300523C0A2C8495D
:102F50000090B848FFF7F6F9C64BC0A2C649B5487D
:102F60000AF016FA0220C54B70A26F49009055482E
:102F700008F0ECFDC2490A228C4818300623CDE93E
:102F800001210090BFA2C149674809F0C1FDC049B5
:102F90000A2286481C300623CDE901210090BDA2FB
:102FA000BE49614809F0B4FD0320BD4B63A26249EC
:102FB0000090444808F0CAFDBA4BBBA2BD495E4828
:102FC00000F02AFEBC4BBDA2BF495B4800F024FEC6
:102FD000BE480221BE4BBFA2CDE90010BF495648F2
:102FE00000F016FD0420BE4BAFA2AE49009052483F
:102FF00008F0ACFD94481830006826900020259019
:103000002490B8480021CDE906102498CDE9041099
:103010002598039001200290269801906348203063
:103020000523B1A2B24900909E48FFF78BF986486C
:103030001C3000682390002022902190AD48002190
:10304000CDE906102198CDE90410229803900120C3
:10305000029023980190554824300623A6A2A74940
:1030600000909048FFF76EF9774820300068209074
:1030700000201F901E90A2480021CDE906101E9846
:10308000CDE904101F980390012002902098019030
:103090004648283006239BA29B4937E1E7CD00082C
:1030A000F1CD0008E5CD00085374617274207061A1
:1030B0006765000078BA0020980000204D61696EB5
:1030C00000000000A8BA0020ACBB002052544320EE
:1030D000CAB1D6D300000000D0BA0020DCBB00206B
:1030E0004C454420BFD8D6C600000000E4BA0020FA
:1030F00064BC0020BBD2B6C8B4ABB8D0C6F70000E1
:10310000F8BA002094BC0020CDD3C2DDD2C70000A5
:103110000CBB002028BD0020D6B1C1F7B5E7BBFA33
:103120000000000020BB002048BE0020B1E0C2EB40
:10313000C6F7000034BB0020B8BE00205049442030
:10314000BFD8D6C60000000048BB0020D4C0002075
:10315000B2BDBDF8B5E7BBFA000000005CBB0020C3
:1031600068C10020CEC2CAAAB6C8B4ABB8D0C6F7F0
:103170000000000070BB0020D8C10020466C6173C5
:103180006800000084BB002038C20020B9D8D3DA20
:103190000000000098BB00200DC8000815C80008FA
:1031A0009DC70008C400002035A200083800002098
:1031B0004C4544310000000004BC002041A200083E
:1031C0004C454432000000001CBC00204DA2000809
:1031D0004C4544330000000034BC002059A20008D4
:1031E0004C454434000000004CBC002039CB0008A2
:1031F000D400002001410008526F6C6C00000000F8
:10320000BCBC0020194100085069746368000000CC
:10321000E0BC0020314100085961770004BD002066
:10322000E000002078BD0020D7F3B5E7BBFA00002E
:1032300050BD0020E0BD0020D3D2B5E7BBFA0000AE
:1032400064BD0020E80000200C26010835B4000809
:1032500050574D00A0BD002049B40008D6D8D6C3B1
:1032600000000000CCBD0020F000002069B4000880
:1032700008BE00207DB4000834BE0020F800002005
:10328000C9390008D7F32052504D000070BE00200D
:10329000E1390008D3D22052504D000094BE0020E6
:1032A0000001002024BF0020D7F3C2D6CBD9B6C876
:1032B000BBB70000E0BE0020FCBF0020D3D2C2D6C6
:1032C000CBD9B6C8BBB70000F4BE00209DB400083F
:1032D0008C000020D7B4CCAC0000000008BF002058
:1032E0000C010020A1B40008C4BFB1EAD6B50000AB
:1032F0004CBF0020C5B400084B70000078BF002010
:10330000F9B400084B690000A4BF00200090C44835
:10331000FFF718F8C34800681D9000201C901B9010
:10332000C1480021CDE906101B98CDE904101C9876
:103330000390012002901D980190BC480623BCA276
:10334000BC490090B648FEF7FDFF0420BA4BAFF22F
:103350009402BA490090BA4808F0F8FBB148001D41
:1033600000681A90002019901890B6480021CDE905
:1033700006101898CDE904101998039001200290C6
:103380001A980190A948001D0523AFF2A402AE4986
:103390000090AA48FEF7D6FFA248083000681790B0
:1033A000002016901590A9480021CDE90610159827
:1033B000CDE904101698039001200290179801900F
:1033C0009A4808300623AFF2D002A14900909B48EA
:1033D000FEF7B8FF93480C3000681490002013905B
:1033E00012909C480021CDE906101298CDE90410F6
:1033F0001398039001200290149801908B480C3090
:103400000623AFF20012944900908C48FEF79AFF11
:103410008448103000681190002010900F908F4861
:103420000021CDE906100F98CDE904101098039003
:1034300001200290119801907C48103006237CA254
:10344000874900907D48FEF77DFF0320854BAFF252
:10345000003285490090854808F078FB71481430A7
:1034600000680E9000200D900C9081480021CDE95D
:1034700006100C98CDE904100D98039001200290DD
:103480000E9801906948143005237AA27C49009077
:103490007548FEF757FF6348183000680B9000200E
:1034A0000A90099077480021CDE906100998CDE9E6
:1034B00004100A980390012002900B9801905B4839
:1034C0001830052370A2734900906748FEF73AFF51
:1034D000714BAFF278227149634809F059FF02201D
:1034E0006F4BAFF280326F490090604808F02EFBBE
:1034F0006D4964224D481C300623CDE9012100901E
:103500006AA26C49674809F003FB6B49642247488B
:1035100020300623CDE90121009068A26949614865
:1035200009F0F6FA0220684BAFF2B032674900901A
:103530004E4808F00BFB66490A223C482430002321
:10354000CDE90121009063A26549604809F0E0FAE5
:10355000644BAFF2F82264495C4809F019FF0A2075
:10356000624BAFF2D83262490090404808F0EEFA60
:10357000002360A262495E4809F00AFF002361A2AD
:1035800064495B4809F004FF002363A2644958487A
:1035900009F0FEFE002363A26649554809F0F8FED3
:1035A000002365A26649524809F0F2FE002365A295
:1035B00067494F4809F0ECFE002366A268494C4871
:1035C00009F0E6FE002367A26A49494809F0E0FED7
:1035D000694B6AA26B49464800F01EFB6A4B6BA21E
:1035E0006D49434800F018FB00206C4ACDE90020EB
:1035F000642362A2604902903D4809F017FB002055
:10360000674ACDE90020642360A25F4902903848F0
:1036100009F00CFB6348FFF7FFFA2DB000BD000076
:1036200024BF0020302601082DB5000864000020CA
:103630004B640000D0BF00201C010020FCBF002014
:10364000B8BE002061B5000824C0002085B5000880
:1036500050C00020B9B500087CC00020EDB50008BE
:10366000A8C000202C010020D4C00020A8BA00204F
:1036700021B60008D7F3B5E7BBFAD7AACBD900002B
:10368000FCC0002033B60008D3D2B5E7BBFAD7AAF6
:10369000CBD9000028C1002049B6000854C1002041
:1036A0003801002068C1002069B60008CEC2B6C843
:1036B0000000000090C1002081B60008CAAAB6C868
:1036C00000000000B4C1002040010020D8C100204B
:1036D00099B60008D6D8C6F4B4CECAFD00000000E2
:1036E00000C20020ADB6000824C20020480100201E
:1036F00038C20020C3D7B4D7B5E7BFD8B0E50000C3
:1037000060C20020CDE2C9E8B2E2CAD4C0FDB3CCA9
:103710000000000074C20020BBB7BEB33A00000036
:1037200088C20020C3D7B4D7B5E7BFD8B0E52056CC
:10373000320000009CC20020D7F7D5DF3A0000001D
:10374000B0C20020D1CCD3EAC3CED9E20000000041
:10375000C4C20020B2CBB5A5BFF2BCDC3A00000069
:10376000D8C20020456173795F4D656E7520563370
:1037700000000000ECC2002028C3002047697468E4
:1037800075623A0000C3002058C3002042696C698A
:1037900062696C693A00000014C30020A93B00086C
:1037A0001121000878BA00201CB50A480A490023F4
:1037B0001A46CDE90010082108480BF0AFFC04467A
:1037C00014B94FF0FF301CBD01200BF011FE00209A
:1037D000F9E70000A1F50008D9F4000898010020DD
:1037E0002DE9FF4107460C4615461E460020009075
:1037F0000190029003908DF80040F3208DF80100B5
:10380000AB208DF802008DF803508DF804606B201A
:103810008DF805004FF47A7306226946384604F0A5
:103820006DFDBDE8FF817FB506460C4615460020BC
:1038300000900190029003908DF80040FE208DF8DA
:10384000010098208DF802008DF803506B208DF850
:1038500004004FF47A7305226946304604F04EFDA9
:103860007FBD2DE9FF4707460D4616461C46DDE99C
:103870000C89002000900190029003908DF8005078
:10388000F6208DF801008DF8026020128DF80300FB
:10389000E0B28DF804008DF805808DF806906B205D
:1038A0008DF807004FF47A7308226946384604F011
:1038B00025FDBDE8FF87000070B504460D4616469D
:1038C000256026713C21206803F046FD0020216818
:1038D00009684862E080A0609FED040A84ED030A55
:1038E0009FED020A84ED040A70BD00000000000094
:1038F00001680968496A09B2C180017911B9B0F952
:10390000061002E0B0F90610494209B2C180002158
:10391000026812685162B0F9062081681144816022
:10392000B0F9061000EE101AB8EEC00ADFED0F0A6B
:1039300080EE201A9FED0E0A21EE000ADFED0D0A3F
:1039400080EE201A80ED031AB0F9061000EE101A6E
:10395000B8EEC00ADFED050A80EE201A9FED060AD8
:1039600021EE000A80ED040A704700000000A54423
:10397000E25CA3410AD7233C0080BB4510B507A1F8
:103980000C480AF029FA00220B490C48FFF794FF73
:1039900000220B490B48FFF78FFF10BD456E636F88
:1039A0006465725F496E6974202E2E2E2E2E2E0DA8
:1039B0000A0000002CB70020C4B50020DCDD002088
:1039C0000CB60020F0DD0020034890ED040A034807
:1039D00080ED060A70470000DCDD00203800002082
:1039E000034890ED040A034880ED070A7047000081
:1039F000F0DD00203800002010B50348FFF778FF05
:103A00000248FFF775FF10BDDCDD0020F0DD00206F
:103A1000F0B50446DDE905568C6003270F704A6057
:103A2000044FCF600846036105750027477586611E
:103A3000F0BD0000393A000870B505460E462C4628
:103A4000012E02D0022E14D108E0607D401EC0B2CB
:103A50006075FF2801D1002060750BE0607D401C7F
:103A6000C0B26075217D884202D1207D401E607504
:103A700000E000BF00BFA06928B1637D226952F851
:103A80002300A169884770BD72B600BFFEE7000041
:103A900010B50DA111480AF09FF900F023F801229A
:103AA00011030F480CF066F90D480078401C0C49D2
:103AB00008704FF480500CF071FA0122110308488D
:103AC0000CF082F910BD0000466C6173685F496EAE
:103AD0006974202E2E2E2E2E2E0D0A002CB70020BB
:103AE000FDB2002070B500240CA112480AF074F950
:103AF0000CF0F2F910A10F480AF06EF90CF024FA5C
:103B000005462A4613A10B480AF066F920460CF038
:103B100045FA15A107480AF05FF970BD53504920D6
:103B2000464C415348205465737420537461727439
:103B30000D0A00002CB7002053504920466C6173D9
:103B40006820496E697469616C697A65642E0D0A32
:103B500000000000466C6173682049443A203078C8
:103B6000256C580D0A00000053504920464C415323
:103B700048205465737420456E640D0A00000000EF
:103B8000704700000148007870470000780200206C
:103B90000148006870470000A8B200200148006892
:103BA00070470000ACB2002010B50CA30822002121
:103BB000084607F07BFB0DA308220121002007F037
:103BC00075FB0DA308220221002007F06FFB0EA356
:103BD00008220321002007F069FB10BD4D697374B2
:103BE000795261696E447265616D580068747470D1
:103BF000733A2F2F000000002020676974687562F7
:103C00002E636F6D2F0000002020202032353439C4
:103C1000383530383037000030B5886005250D70F4
:103C20004A60024DCD600C46236130BD313C000836
:103C300070B504460D462646042D04D1306910B1F6
:103C40003069FEF7E9FF70BD10B502A106480AF021
:103C5000C3F810BD477261795F496E6974202E2EDA
:103C60002E2E2E2E0D0A00002CB7002010B506F0C7
:103C700040FAC0430149087010BD0000B4B20020F2
:103C800010B500200D4908609FED0D0A084680ED33
:103C9000010A9FED0B0A80ED020A9FED090A80EDF3
:103CA000030A0120087400F02BFF044948619FEDCE
:103CB000050A054880ED000A10BD00008CDD0020DB
:103CC000000000009A99593F88B2002070B52DED90
:103CD000048B04466B48007C10B9BDEC048B70BDAE
:103CE00000F00EFF064667484069351A00EE105A8C
:103CF000B8EE400ADFED640AB4EEE00AF1EE10FA25
:103D000035DB6048006870B35E48D0ED010A90ED85
:103D1000000AB8EE400A80EE801A5C4880ED071A6F
:103D20005848D0ED020A90ED000AB8EE400A80EE45
:103D3000801A564880ED081A5248D0ED030A90EDDB
:103D4000000AB8EE400A80EE801A504880ED091A49
:103D500001204E4981F828009FED4D0A4D4880ED25
:103D6000000A00F0F1F9002046490874B5E794ED27
:103D7000000A10EE101A08460CF068FE41EC190B10
:103D8000B0EE490AF0EE690A0AF074FBB0EE408A20
:103D9000F0EE608A9FED400B53EC102B51EC180BAA
:103DA0000CF0FAFB6BD294ED010A10EE101A0846E3
:103DB0000CF04CFE41EC190BB0EE490AF0EE690A2A
:103DC0000AF058FBB0EE408AF0EE608A9FED320BAD
:103DD00053EC102B51EC180B0CF0DEFB4FD294ED92
:103DE000020A10EE101A08460CF030FE41EC190BD6
:103DF000B0EE490AF0EE690A0AF03CFBB0EE408AE8
:103E0000F0EE608A9FED240B53EC102B51EC180B55
:103E10000CF0C2FB33D21B4890ED010AD4ED000A2E
:103E200030EE200A80ED010A90ED020AD4ED010A7D
:103E300030EE200A80ED020A90ED030AD4ED020A6A
:103E400030EE200A80ED030A0068401C0D4908602E
:103E5000084600683221B0FBF1F201FB120070B994
:103E600000EE905AB8EE601ADFED071AC1EE210A93
:103E70009FED0B1A60EE810AB0EE600A00BF00BF32
:103E80002BE700008CDD00200000FA445CDD002000
:103E90000AD7A33C88B200200000000000001440B4
:103EA0000000C84210B59FED220A224880ED000AAA
:103EB0009FED1F0A80ED010A9FED1D0A80ED020AA9
:103EC000B7EE000A80ED030A9FED190A80ED040A9F
:103ED0009FED170A80ED050A9FED150A80ED060A91
:103EE0009FED130A80ED070A9FED110A80ED080A85
:103EF0009FED0F0A80ED090A00200E4981F8280085
:103F000000F0FEFD0B49C86200200B4908609FEDE0
:103F1000080A084680ED010A9FED050A80ED020AB5
:103F20009FED030A80ED030A0020087410BD000015
:103F3000000000005CDD00208CDD002020B1094B7A
:103F400093ED000A80ED000A21B1064B93ED010AC2
:103F500081ED000A22B1034B93ED020A82ED000AC3
:103F6000704700005CDD002010B505A10D4809F088
:103F700033FF05F0B5FDFFF795FFFFF781FE10BD9C
:103F800049434D3230363038204779726F73636F52
:103F900070655F496E6974202E2E2E2E2E2E0D0A0E
:103FA000000000002CB7002010B52DED0C8B04464E
:103FB00014B9BDEC0C8B10BDD4ED000A60EEA00A64
:103FC00094ED011AD4ED011A41EE210A94ED021A82
:103FD000D4ED021A41EE210AB0EE600A0AF01CFB91
:103FE000B0EE408AB0EE480ADFED420AB4EEE00AD5
:103FF000F1EE10FA00D2DCE794ED000AC0EE08BA48
:1040000094ED010A80EE089A94ED020AC0EE088A47
:10401000F0EE680AB0EE490A0AF02EF8F0EE409A87
:1040200069EE090A48EEA80AB0EE600A0AF0F4FA4E
:10403000B0EE40DAF0EE4D0AB1EE6B0A0AF01CF871
:10404000B0EE40AAF6EE000A69EEA00AB0EE600AF1
:104050000AF068F9F0EE40AAF6EE000A69EEA00A4E
:10406000B0EE600A0AF010FAB0EE40CAF6EE000AAE
:104070006AEE200AB0EE600A0AF054F9B0EE40BAD7
:10408000F6EE000A6AEE200AB0EE600A0AF0FCF9C9
:10409000F0EE40CA2AEE8B0A174880ED030A2CEE98
:1040A0000B0A80ED040A2AEEAC0A80ED050A9FEDAA
:1040B000130A80ED060A00F118031A1F111F0C30B5
:1040C0000BF04EFC0C4890ED062AF0EE421A90EDF3
:1040D000052AB0EE421A90ED042AF0EE420A90ED65
:1040E000032AB0EE420A00F10802011D0BF084FC25
:1040F00000BF5EE7CDCCCC3D5CDD002000000000C1
:10410000034890ED120A034880ED010A7047000051
:1041100004DE002038000020034890ED130A034815
:1041200080ED020A7047000004DE00203800002005
:10413000034890ED140A034880ED030A704700001D
:1041400004DE002038000020B7EE000A0D4880EDA4
:10415000030A9FED0D0A80ED040A9FED0B0A80ED26
:10416000050A9FED090A80ED060A9FED070A80ED1A
:10417000000A9FED050A80ED010A9FED030A80ED1C
:10418000020A70475CDD00200000000010B52DED34
:10419000088B84B000F0B4FC04465D480068201A27
:1041A00000EE100AB8EE400ADFED5A0A80EE201A3F
:1041B000B0EE418A5648006828B95548046004B0FA
:1041C000BDEC088B10BD9FED540AB4EEC08AF1EE31
:1041D00010FA03DD9FED510AB0EE408A9FED500AC0
:1041E000B4EEC08AF1EE10FA00D2E8E74D4AA2F12F
:1041F0004801A1F10C0005F051FD4B48007850B189
:104200004A48007C38B94A4890F8280018B1454817
:104210004838FFF7C9FE4548007C43490870B0EEB6
:10422000480A40494839A1F10C0000F09FF83D4A86
:10423000121F111F081FFFF781FE3A48543890EDF6
:10424000120AB5EEC00AF1EE10FA08D290ED120A89
:10425000DFED380A30EE200A80ED120A09E031481D
:10426000543890ED120ADFED330A30EE600A80ED2B
:10427000120A31480078D8B92D4890F82800B8B112
:104280002848543890ED120A2C4880ED000A254841
:10429000543890ED130A2A4880ED000A214854381A
:1042A00090ED140A274880ED000A01202249087089
:1042B0001C48543890ED140A10EE101A08460CF001
:1042C000C5FB41EC190B1748543890ED130A10EE5A
:1042D000101A08460CF0BAFB41EC1A0B114854387E
:1042E00090ED120A10EE101A08460CF0AFFB41ECEC
:1042F0001B0B8DED029B8DED00AB53EC1B2B12A124
:10430000194809F069FD0248046000BF57E7000042
:10431000C8B2002000007A44CDCCCC3D0AD7233C63
:104320006F12833A58DE0020CCB200208CDD0020D2
:104330005CDD002000003443B8B20020BCB2002095
:10434000C0B20020C4B20020526F6C6C3D252E32EA
:10435000662050697463683D252E32662059617766
:104360003D252E32660D0A002CB7002070B52DEDCC
:10437000028B04460D46B0EE408A04B115B9BDEC7F
:10438000028B70BD294620460AF040FD00B9F6E7D1
:104390002048007C18B12046FFF798FCEFE71E4844
:1043A00090F8280048B3D4ED000A60EEA00A94ED1E
:1043B000011AD4ED011A41EE210A94ED021AD4ED4E
:1043C000021A41EE210AB0EE600A0AF025F9F0EE79
:1043D000408AB2EE040AF4EEC08AF1EE10FA0BDD68
:1043E00000F08EFB06460D480068301A0C498842E2
:1043F00001D90A48066000BF00BFB0EE480A29464E
:1044000020460AF073FA00F07BFB0349C86200BF44
:10441000B5E700008CDD00205CDD0020A4B20020A8
:10442000E093040070B50446A56D00F069FB0646F4
:1044300094F83500022808D08020606500BF002075
:1044400084F8340000BF012070BD2068006820F0AF
:104450001600216808602068406920F0800021680B
:104460004861206C08B9A06C28B12068006820F071
:104470000800216808602068006820F001002168B9
:10448000086010E000F03CFB801B05280BD92020C1
:104490006065032084F8350000BF002084F83400F4
:1044A00000BF0320D0E72068006800F0010000286A
:1044B000E8D194F85C103F208840A860012084F87F
:1044C000350000BF002084F8340000BF00BFBBE708
:1044D000014691F83500022803D08020486501206C
:1044E0007047052081F835000868006820F0010059
:1044F0000A6810600020F3E70146486D70470146E6
:1045000091F8350070470000F8B50446002000908F
:104510008C4800684FF41651B0FBF1F7A56D2E687A
:1045200094F85C1008208840304098B120680068FA
:1045300000F0040070B12068006820F004002168D9
:10454000086094F85C1008208840A860606D40F016
:104550000100606594F85C1001208840304068B12B
:104560002068406900F0800040B194F85C100120A0
:104570008840A860606D40F00200606594F85C10AF
:1045800004208840304068B12068006800F00200D4
:1045900040B194F85C1004208840A860606D40F041
:1045A0000400606594F85C1010208840304078B3B7
:1045B0002068006800F0080050B394F85C101020E8
:1045C0008840A8602068006800F4802080B12068DE
:1045D000006800F4002028B9206CC8B12046216C86
:1045E000884715E0A06C98B12046A16C88470FE081
:1045F0002068006800F4807028B92068006820F006
:10460000080021680860206C10B12046216C8847A2
:1046100094F85C10202088403040002865D0206845
:10462000006800F0100000285FD094F85C10202093
:104630008840A86094F83500052828D120680068D3
:1046400020F01600216808602068406920F0800092
:1046500021684861206C08B9A06C28B12068006806
:1046600020F008002168086094F85C103F20884022
:10467000A860012084F8350000BF002084F83400D1
:1046800000BF206D10B12046216D8847F8BD20681D
:10469000006800F4802080B12068006800F40020E9
:1046A00028B9606C10B12046616C88471DE0E06B52
:1046B000D8B12046E16B884717E02068006800F415
:1046C000807068B92068006820F0100021680860D8
:1046D000012084F8350000BF002084F8340000BFBA
:1046E000E06B10B12046E16B8847606D38B3606DB8
:1046F00000F00100F0B1052084F835002068006862
:1047000020F001002168086000BF0098401C009064
:10471000B84200D905E02068006800F001000028D8
:10472000F3D100BF012084F8350000BF002084F8D9
:10473000340000BFE06C10B12046E16C884700BF38
:10474000A4E700000C0000202DE9F04104460025FC
:1047500000F0D6F9074614B90120BDE8F081606A7F
:1047600000B100BF022084F8350000BF002084F8AB
:10477000340000BF2068006820F001002168086054
:104780000AE000F0BDF9C01B052805D920206065AE
:10479000032084F83500E0E72068006800F001009D
:1047A0000028EED12068056821480540D4E90101C0
:1047B0000843E16808432169084361690843A16926
:1047C0000843E1690843216A08430543606A0428F5
:1047D00003D1D4E90B010843054320680560206834
:1047E000456925F00705606A0543606A04280DD114
:1047F000A06A0543E06A48B12046FDF737FD28B1BD
:1048000040206065012084F83500A6E720684561F6
:104810002046FDF711FD064694F85C103F208840C5
:10482000B06000206065012084F83500002094E726
:104830003F8010F02DE9F04704460D4616461F460E
:104840004FF00008D4F8589000BF94F834000128C5
:1048500002D10220BDE8F087012084F8340000BFB7
:1048600094F83500012825D1022084F83500002075
:1048700060653B46324629462046FDF74CFD94F8DC
:104880005C103F208840C9F808002068006840F0AC
:10489000160021680860206C28B12068006840F08C
:1048A0000800216808602068006840F00100216865
:1048B000086006E000BF002084F8340000BF4FF01D
:1048C00002084046C6E7000070B5044600F018F93B
:1048D00006462546681C10B104480078054400BF10
:1048E00000F00EF9801BA842FAD370BD080000202A
:1048F000F8B502460B460025002400200021D6E032
:10490000012606FA01F51E6806EA0504AC4274D1D8
:104910001E7906F00306012E04D01E7906F0030668
:10492000022E13D190684F000326BE40B0434F00C3
:10493000DE68BE4030439060506801268E40B04330
:104940001E79C6F300168E40304350601E7906F083
:104950000306032E09D0D0684F000326BE40B043A3
:104960004F009E68BE403043D0601E7906F00306BB
:10497000022E13D1CF0802F1200656F827004E0769
:10498000F70E0F26BE40B0434F07FF0E1E69BE4014
:104990003043CF0802F1200646F8270010684F0088
:1049A0000326BE40B0431E7906F003064F00BE400A
:1049B000304310605E6806F44036002E76D000BFAB
:1049C000002600963C4E366846F480463A4F3E60DC
:1049D0003E46366806F48046009600BF00BF374E5C
:1049E0008F0856F827008E07370F0F26BE40B043BA
:1049F000334EB24202D1002624E057E0314EB2429B
:104A000001D101261EE0304EB24201D1022619E04A
:104A10002E4EB24201D1032614E02D4EB24201D1F6
:104A200004260FE02B4EB24201D105260AE02A4EA1
:104A3000B24201D1062605E0284EB24201D1072636
:104A400000E008268F073F0FBE4030431B4E8F0803
:104A500046F82700224E3068A0435E6806F48016B0
:104A600006B120431E4E3060361D3068A0435E689C
:104A700006F4001606B12043194E361D3060184E5C
:104A8000361F3068A0435E6806F4003606B1204346
:104A9000134E361F3060361F3068A0435E6806F440
:104AA000803606B120430E4E083E3060491C102966
:104AB000FFF426AFF8BD000044380240083801403A
:104AC000000002400004024000080240000C0240C6
:104AD000001002400014024000180240001C024076
:104AE000083C0140024613690B400BB1012000E075
:104AF000002070470AB1816101E00B0483617047B7
:104B000001480068704700000000002070477047AF
:104B10002DE9F04705464FF0000928684668D5F8AA
:104B20002CA095F83E7095F83D80102F01D0402FB5
:104B300075D12868D0F818902868446904F00100FD
:104B400060B9BAF52A0F02D0BAF12A4F01D101207B
:104B500000E00020012801D1BDE8F08704F0010049
:104B600048B1C6F3402030B1284603F06DFC28461A
:104B700004F0D5FAB7E0C4F3C00030B1C6F340206A
:104B800018B1284604F082F9ADE0C4F3400030B11A
:104B9000C6F3402018B1284604F08DF9A3E0C9F30C
:104BA000800040B32868406800F40060B0F5006FF2
:104BB000E0D0C4F3C01048B1C6F3802030B1C4F3D4
:104BC000800018B9284604F0F5F88CE0C4F38000A2
:104BD0000028CFD0C6F340200028CBD0B8F1210F59
:104BE00003D1284604F096F87DE0402F7BD128467B
:104BF00004F0E4FA77E02868406800F40060B0F55B
:104C0000006F70D0C4F3801050B1C6F3802038B16B
:104C1000C4F3800020B9284603F0FDFE63E00BE0FA
:104C2000C4F3800000285ED0C6F3402000285AD08C
:104C3000284603F058FE56E0286C10B128684469F5
:104C400004E02868D0F8189028684469C4F340004C
:104C500060B1C6F3402048B1286C10B12868D0F884
:104C600018904946284604F08DFC3CE0C4F300103F
:104C700030B1C6F3402018B1284604F0BBFC32E046
:104C8000B8F1210F02D0B8F1290F16D1C4F3C0102A
:104C900048B1C6F3802030B1C4F3800018B928466B
:104CA00004F04DFC1FE0C4F38000E0B1C6F34020E7
:104CB000C8B1284604F036FC15E0C4F3801048B1B2
:104CC000C6F3802030B1C4F3800018B9284604F040
:104CD00006FC08E0C4F3800028B1C6F3402010B100
:104CE000284604F0EFFB00BF36E7704770B5044676
:104CF0000CB9012070BD94F83D0028B9002084F85B
:104D00003C00204600F068FE242084F83D00206826
:104D1000006820F00100216808602068006840F405
:104D20000040216808602068006820F40040216885
:104D3000086001F069F905465C496068884206D858
:104D40005B48854201D2012007E0002005E0594878
:104D5000854201D2012000E00020012800D1C9E7EE
:104D60005548B5FBF0F62068406820F03F0030431E
:104D7000216848604D496068884201D8701C07E08E
:104D80004FF4967070434FF47A71B0FBF1F0401C11
:104D90002168096A21F03F010843216808624349FC
:104DA0006068884214D8681E61684900B0FBF1F061
:104DB000401CC0F30B00042801D204203DE0681E13
:104DC00061684900B0FBF1F0401CC0F30B0034E017
:104DD000A06838B9681E616801EB4101B0FBF1F0D1
:104DE000401C0AE0681E616801EBC10202EB011180
:104DF000B0FBF1F0401C40F48040C0F30B0008B958
:104E000001201AE0A06848B9681E616801EB410101
:104E1000B0FBF1F0401CC0F30B000CE0681E6168B1
:104E200001EBC10202EB0111B0FBF1F0401CC0F339
:104E30000B0040F4804040F400402168C9694CF602
:104E4000FF72914308432168C861D4E90701084310
:104E50002168096821F0C001084321680860D4E98D
:104E6000031008432168896848F2FF3291430843E0
:104E700021688860D4E9050108432168C96821F0E8
:104E8000FF0108432168C8602068006840F0010005
:104E90002168086000202064202084F83D00002064
:104EA000206384F83E0000BF24E70000A0860100D4
:104EB00080841E0000093D0040420F00704770478B
:104EC000704700002DE9F843044689461746984686
:104ED000089EFFF715FE054694F83D0020287DD179
:104EE00019230122B7492046009504F07CFC10B13B
:104EF0000220BDE8F88300BF94F83C00012801D1EE
:104F00000220F6E7012084F83C0000BF206800681A
:104F100000F0010028B92068006840F00100216815
:104F200008602068006820F4006021680860222082
:104F300084F83D00102084F83E0000202064676261
:104F4000A4F82A80608D20859F48E0622B46324677
:104F50004946204603F0E2FD08B10120C9E7208D53
:104F600088B900BF00200090206840690090206848
:104F70008069009000BF00BF2068006840F40070A6
:104F80002168086047E0208D012817D1206800685B
:104F900020F480602168086000BF00200090206835
:104FA0004069009020688069009000BF00BF2068C1
:104FB000006840F40070216808602CE0208D022811
:104FC00018D12068006820F480602168086020689B
:104FD000006840F400602168086000E0EFE000BF76
:104FE000002000902068406900902068806900904F
:104FF00000BF10E02068006840F48060216808600D
:1050000000BF0020009020684069009020688069FF
:10501000009000BF00BFC3E0208D03287ED8208D04
:10502000012815D12A463146204604F0B8FC08B1C3
:1050300001205EE720680069616A0870606A401CB0
:105040006062208D401E2085608D401E6085A7E037
:10505000208D02282AD1334600225C492046009543
:1050600004F0C1FB08B1012043E72068006840F468
:1050700000702168086020680069616A0870606AD1
:10508000401C6062208D401E2085608D401E608522
:1050900020680069616A0870606A401C6062208D47
:1050A000401E2085608D401E608579E033460022D9
:1050B00046492046009504F096FB08B1012018E708
:1050C0002068006820F4806021680860206800691A
:1050D000616A0870606A401C6062208D401E2085F5
:1050E000608D401E60853346002238492046009579
:1050F00004F079FB08B10120FBE62068006840F469
:1051000000702168086020680069616A0870606A40
:10511000401C6062208D401E208500E010E0608D04
:10512000401E608520680069616A0870606A401CE2
:105130006062208D401E2085608D401E60852FE0BE
:105140002A463146204604F02AFC08B10120D0E668
:1051500020680069616A0870606A401C6062208D86
:10516000401E2085608D401E608520684069C0F328
:105170008000A8B1208D032805D12068006820F4A4
:1051800080602168086020680069616A0870606A50
:10519000401C6062208D401E2085608D401E608511
:1051A000208D00287FF438AF202084F83D000020B7
:1051B00084F83E0000BF84F83C0000BF99E602205E
:1051C00097E60000020010000000FFFF040001004D
:1051D0002DE9F8430446894616461F46DDF820802F
:1051E000FFF78EFC054694F83D0020287ED1192358
:1051F000012251492046009504F0F5FA10B1022031
:10520000BDE8F88300BF94F83C00012801D10220DA
:10521000F6E7012084F83C0000BF2068006800F039
:10522000010028B92068006840F00100216808608A
:105230002068006820F4006021680860212084F85C
:105240003D00102084F83E000020206466626785DF
:10525000608D20853948E0622B464246494620460B
:1052600003F0F8FC08B10120CAE700BF002000905D
:1052700020684069009020688069009000BF00BFEE
:1052800044E02A464146204604F0F6FB50B1206C2B
:10529000042805D12068006840F400702168086087
:1052A0000120ADE7606A007821680861606A401CEF
:1052B0006062608D401E6085208D401E20852068C4
:1052C0004069C0F3800070B1208D60B1606A0078E1
:1052D00021680861606A401C6062608D401E6085C4
:1052E000208D401E20852A46414600E022E02046CF
:1052F00004F046FA50B1206C042805D120680068FB
:1053000040F4007021680860012079E7208D0028B2
:10531000B7D12068006840F4007021680860202040
:1053200084F83D00002084F83E0000BF84F83C0073
:1053300000BF65E7022063E7020010000000FFFFE6
:10534000704700000021014A11707047840200205C
:105350002DE9FC5F04460F4690469946DDE90CAB0B
:105360000E9EFFF7CDFB054694F83D00202870D136
:1053700019230122B5492046009504F034FA10B1F2
:105380000220BDE8FC9F00BF94F83C00012801D139
:105390000220F6E7012084F83C0000BF2068006886
:1053A00000F0010028B92068006840F00100216881
:1053B00008602068006820F40060216808602220EE
:1053C00084F83D00402084F83E0000202064C4F8AA
:1053D00024A0A4F82AB0608D20859D48E0624B4649
:1053E000424639462046CDE9006503F04BFF08B13F
:1053F0000120C6E7208D88B900BF002001902068F9
:105400004069019020688069019000BF00BF20685A
:10541000006840F400702168086040E0208D012899
:1054200018D12068006820F480602168086000BFFF
:1054300000200190206840690190206880690190F7
:1054400000BF00BF2068006840F400702168086059
:1054500025E0F8E0208D022816D12068006820F4AD
:105460008060216808602068006840F4006021685E
:10547000086000BF0020019020684069019020680A
:105480008069019000BF0AE000BF00200190206801
:105490004069019020688069019000BF00BFC3E0AF
:1054A000208D03287ED8208D012815D12A4631462B
:1054B000204604F074FA08B1012062E72068006910
:1054C000616A0870606A401C6062208D401E208501
:1054D000608D401E6085A7E0208D02282AD13346CA
:1054E00000225C492046009504F07DF908B10120B6
:1054F00047E72068006840F4007021680860206871
:105500000069616A0870606A401C6062208D401EFC
:105510002085608D401E608520680069616A087082
:10552000606A401C6062208D401E2085608D401E98
:10553000608579E03346002246492046009504F014
:1055400052F908B101201CE72068006820F480604F
:105550002168086020680069616A0870606A401C00
:105560006062208D401E2085608D401E6085334620
:10557000002238492046009504F035F908B1012091
:10558000FFE62068006840F4007021680860206829
:105590000069616A0870606A401C6062208D401E6C
:1055A000208500E010E0608D401E60852068006965
:1055B000616A0870606A401C6062208D401E208510
:1055C000608D401E60852FE02A463146204604F05B
:1055D000E6F908B10120D4E620680069616A087024
:1055E000606A401C6062208D401E2085608D401ED8
:1055F000608520684069C0F38000A8B1208D032831
:1056000005D12068006820F4806021680860206867
:105610000069616A0870606A401C6062208D401EEB
:105620002085608D401E6085208D00287FF438AF76
:10563000202084F83D00002084F83E0000BF84F85C
:105640003C0000BF9DE602209BE600000200100027
:105650000000FFFF040001002DE9FC5F04460F4637
:1056600090469946DDE90CAB0E9EFFF749FA0546D8
:1056700094F83D0020287DD1192301224D49204670
:10568000009504F0B0F810B10220BDE8FC9F00BF07
:1056900094F83C00012801D10220F6E7012084F8AB
:1056A0003C0000BF2068006800F0010028B92068B5
:1056B000006840F00100216808602068006820F45C
:1056C000006021680860212084F83D00402084F8B3
:1056D0003E0000202064C4F824A0A4F82AB0608D05
:1056E00020853548E0624B46424639462046CDE9A2
:1056F000006503F077FE08B10120C6E731E02A46D5
:105700003146204604F0B8F950B1206C042805D188
:105710002068006840F40070216808600120B4E748
:10572000606A007821680861606A401C6062208DB0
:10573000401E2085608D401E608520684069C0F352
:10574000800070B1208D60B1606A007821680861C6
:10575000606A401C6062208D401E2085608D401E66
:105760006085208D0028CAD12A463146204604F0A3
:1057700007F800E01CE050B1206C042805D1206837
:10578000006840F400702168086001207DE720680F
:10579000006840F4007021680860202084F83D0013
:1057A000002084F83E0000BF84F83C0000BF6CE796
:1057B00002206AE7020010000000FFFF2DE9FE4F03
:1057C00004460E4617469846DDE90C9A00200290E2
:1057D000FFF796F9834694F83D00202879D17A485E
:1057E00000681921B0FBF1F04FF47A71B0FBF1F0D1
:1057F00000EBC00101EB0010029000BF0298401EB8
:105800000290029870B900202063202084F83D00A7
:10581000002084F83E00206C40F02000206402202C
:10582000BDE8FE8F20688069C0F340000028E5D104
:1058300000BF94F83C00012801D10220F0E70120CC
:1058400084F83C0000BF2068006800F0010028B91F
:105850002068006840F00100216808602068006846
:1058600020F4006021680860212084F83D00402079
:1058700084F83E0000202064C4F82490A4F82AA0F4
:10588000608D20855148E0626664A764C4F84C804E
:1058900000202065208D00286DD0606BD0B14C4871
:1058A000616BC8634B48616BC8640020616B08641E
:1058B000616B4864616B8864616B0865238DD4F803
:1058C00000C00CF11002616A606BFEF7B3FF054681
:1058D00011E076E0202084F83D00002084F83E00AE
:1058E000206C40F08000206400BF002084F83C0061
:1058F00000BF012094E7EDBB232043463A463146E2
:10590000CDE9000B204603F06DFDB8B1606BFEF7EA
:10591000DFFD05460020616BC8632068006820F445
:10592000806021680860002020856085206800680C
:1059300020F0010021680860012071E700BF00200D
:10594000019020684069019020688069019000BF43
:1059500000BF00BF002084F83C0000BF2068406802
:1059600040F48070216848602068406840F400601E
:10597000216801E003E013E04860002050E72020A8
:1059800084F83D00002084F83E00206C40F01000B8
:10599000206400BF002084F83C0000BF01203FE7E6
:1059A000202084F83D00002084F83E00206C40F068
:1059B0004000206400BF002084F83C0000BF0120AC
:1059C0002EE702202CE700000C0000200000FFFF63
:1059D000AD8500085D85000810B586B00446142129
:1059E00001A8FAF731FE4849206888422FD100BF4C
:1059F000002000904548006840F0020043490860DC
:105A00000846006800F00200009000BF00BFC02000
:105A100001901220029000200390032004900420A3
:105A2000059001A93A48FEF763FF00BF00200090EF
:105A300036481030006840F40010344910310860D6
:105A40000846006800F40010009000BF5AE0314999
:105A50002068884256D100BF002000902B48006883
:105A600040F00200294908600846006800F0020082
:105A7000009000BF00BF4FF44060019012200290E0
:105A800000200390032004900420059001A92048E1
:105A9000FEF72EFF00BF002000901C481030006869
:105AA00040F480001949103108600846006800F48D
:105AB0008000009000BF00BF1748184908604FF0F1
:105AC000606048604021154881600021C1604FF44A
:105AD00080610161002141618161C16101624162B6
